:100000000C9434000C943E000C943E000C943E0082
:100010000C943E000C943E000C943E000C943E0068
:100020000C943E000C943E000C943E000C943E0058
:100030000C943E000C943E000C943E000C943E0048
:100040000C943E000C943E000C943E000C943E0038
:100050000C943E000C943E000C943E000C943E0028
:100060000C943E000C943E0011241FBECFEFD8E04C
:10007000DEBFCDBF0E9440000C945B000C940000DA
:10008000569A99B192FB442740F993FB332730F9F4
:1000900094FB222720F9932F9095822F842380951B
:1000A000382B822F8423892B83238295880F880FF6
:0A00B000807C8BB9E6CFF894FFCFF7
:00000001FF
